:020000040800F2
:1000000000110020D501000881150008ED1200083C
:100010002913000837050008F1200008000000003F
:100020000000000000000000000000005718000859
:100030002D100008000000000916000869190008CA
:10004000EF010008EF010008EF010008EF010008D0
:10005000EF010008EF010008EF010008EF010008C0
:10006000EF010008EF010008EF010008EF010008B0
:10007000EF010008EF010008EF010008EF010008A0
:10008000EF010008EF010008EF010008EF01000890
:10009000DD1E0008EF010008EF010008EF01000875
:1000A000EF010008EF010008EF010008EF01000870
:1000B000EF010008CD190008EF010008EF0100086A
:1000C000EF010008EF010008EF010008EF01000850
:1000D000EF010008B51B0008EF010008EF01000860
:1000E000EF010008EF010008EF010008EF01000830
:1000F000EF010008EF010008EF010008EF01000820
:10010000EF010008EF010008EF010008EF0100080F
:10011000EF010008EF010008EF010008EF010008FF
:10012000EF010008EF010008EF010008EF010008EF
:1001300000F002F800F03FF80AA090E8000C8244BA
:100140008344AAF10107DA4501D100F034F8AFF297
:10015000090EBAE80F0013F0010F18BFFB1A43F0A5
:10016000010318476C3D00008C3D0000103A24BF8D
:1001700078C878C1FAD8520724BF30C830C144BF0C
:1001800004680C607047000000230024002500264E
:10019000103A28BF78C1FBD8520728BF30C148BFEA
:1001A0000B607047642900F07780002070471FB50E
:1001B0001FBD10B510BD00F093F91146FFF7F7FF12
:1001C00002F07CF800F0B1F903B4FFF7F2FF03BCD2
:1001D00002F01AF80948804709480047FEE7FEE7A1
:1001E000FEE7FEE7FEE7FEE7FEE7FEE7FEE7FEE7E7
:1001F00004480549054A064B704700006D19000880
:1002000031010008000B002000110020000D00202B
:10021000000D0020704700000FB4044910B503AA78
:10022000029800F0FFF810BC5DF814FB18000020E5
:100230002DE9F0410E460446002020622046E16888
:10024000884730B3252805D0D4E901219047206A9A
:10025000401CF2E7E168204600278847050018D0D7
:10026000A5F14100192802D820354FF40067324625
:10027000294620462760FFF795FF40B1012804D0AA
:10028000F61D26F007060836D8E7361DD6E72846BD
:10029000DAE7206ABDE8F0812DE9F0410646002446
:1002A00010687529314616A510D0AFF300800028DC
:1002B00002DA404213A507E031688A0701D512A58A
:1002C00002E0490704D511A5012401E0AFF3008045
:1002D00000210A2206F1240709E0B0FBF2FCB0FB82
:1002E000F2F302FB1C00303078541846491C0028F9
:1002F000F3D123462A463046BDE8F04100F039B834
:10030000000000002D0000002B0000002000000075
:100310004FF000020429C0F0128010F0030C00F02E
:100320009580CCF1040CBCF1020F18BF00F8012B32
:10033000A8BF20F8022BA1EB0C0100F087B85FEA00
:10034000C17C24BF00F8012B00F8012B48BF00F846
:10035000012B7047704770477047704710B500F029
:100360009BF8006810BD10B5044600F095F80460D5
:1003700010BD2DE9F0470D4699469246044600F11E
:1003800024080168880604D5E06921F01001216085
:1003900000E00120A84201DD471B00E00027A16921
:1003A0007A1902EB0900081AA0612078C00602D46D
:1003B0002046AFF30080002608E0D4E901211AF8B6
:1003C00006009047206A401C761C20624E45F4DBF4
:1003D0002078C0060AD52046AFF3008006E0D4E9B5
:1003E000012130209047206A401C2062381EA7F16E
:1003F0000107F4DC07E0D4E9012118F80500904773
:10040000206A401C2062281EA5F10105F3DC20466D
:10041000AFF300802078000602D50220BDE8F08707
:100420000120FBE7074B70B50D467B4400F03DF81B
:100430000446284600F04CF810B14FF0FF3070BD74
:10044000204670BD731E00004FF0000200B5134639
:1004500094469646203922BFA0E80C50A0E80C50E4
:10046000B1F12001BFF4F7AF090728BFA0E80C5095
:1004700048BF0CC05DF804EB890028BF40F8042B8E
:1004800008BF704748BF20F8022B11F0804F18BFFB
:1004900000F8012B7047000000487047A00A0020B8
:1004A00001694A1C02610878704700B58FB0CDE938
:1004B00001310021059105497944CDE90310114628
:1004C0006846FFF7B5FE0FB000BD0000E5FFFFFF77
:1004D000007B00F08000704700487047A00A0020B1
:1004E0007546FFF7F9FFAE4605006946534620F012
:1004F0000700854618B020B5FFF77AFEBDE820401A
:100500004FF000064FF000074FF000084FF0000BCF
:1005100021F00701AC46ACE8C009ACE8C009ACE882
:10052000C009ACE8C0098D4670470446AFF30080AF
:100530002046FFF749FE00BFFEE70000F0B589B096
:1005400007460C4615461E460121092001F06EF8AB
:100550000121480601F05AF84FF40070ADF8200070
:1005600003208DF8220018208DF8230008A96D487B
:1005700000F0E7FD4FF48070ADF8200048208DF8C2
:10058000230008A9674800F0DCFD01214FF4EA10C0
:1005900000F062FE00208DF81A008DF81B008DF827
:1005A0001C0001208DF81D0000208DF81E008DF824
:1005B0001F008DF816008DF817708DF818508DF803
:1005C0001940ADF8146005A9574800F076F90020ED
:1005D0008DF80E0001208DF80F008DF810004FF4FB
:1005E000F070ADF804000020ADF806004FF438704C
:1005F000ADF808000020ADF80A00ADF80C000120AD
:100600008DF8110001A800F0CBF801208DF80E0044
:100610008DF80F008DF810004FF47870ADF80400DD
:100620000020ADF806004FF49C60ADF808000020F3
:10063000ADF80A00ADF80C0001208DF8110001A8FA
:1006400000F0AEF802208DF80E0001208DF80F00AA
:100650008DF8100044F22000ADF804000020ADF841
:10066000060044F24000ADF808000020ADF80A0092
:10067000ADF80C0001208DF8110001A800F090F8F1
:1006800003208DF80E0001208DF80F008DF810006A
:1006900044F26000ADF804000020ADF806004FF40D
:1006A0008140ADF808000020ADF80A00ADF80C005C
:1006B00001208DF8110001A800F072F804208DF8D7
:1006C0000E0001208DF80F008DF8100044F2A000FC
:1006D000ADF804000020ADF8060044F2C000ADF80B
:1006E00008000020ADF80A00ADF80C0001208DF8DC
:1006F000110001A800F054F8012202210A4800F07C
:10070000D3F814208DF8000001208DF8010000209E
:100710008DF8020001208DF80300684600F032FFDA
:1007200009B0F0BD000C0140006400402DE9F0412B
:1007300086B080460D46164600240196029600209B
:100740008DF80C008DF80D008DF80E5000BF06E0FE
:1007500018F804100DF10F000155601C84B2AC4272
:10076000F6DB01A90D4800F00DFA0746002401E070
:10077000601C84B23946094800F098FA18B940F66E
:10078000FF708442F4DB40F6FF70844203DB0120FB
:1007900006B0BDE8F0810020FAE7000000640040E8
:1007A00010B50021837A012202FA03F13D4A126852
:1007B00042F001023B4B1A603A4A1C3212688A43EB
:1007C000384B1C331A60027BCAB9364A0C321268A5
:1007D0008A43344B0C331A604288C38842EA03438D
:1007E000304A4032847A42F834300288838842EAC0
:1007F00003432C4A4032847A02EBC4025360027BEA
:10080000012A19D1274A0C3212680A43254B0C33AE
:100810001A604288038842EA0343224A4032847ABB
:1008200042F83430C288838842EA03431D4A40328A
:10083000847A02EBC4025360C27A3AB9194A121D93
:1008400012688A43174B1B1D1A6006E0154A121DD9
:1008500012680A43134B1B1D1A60028932B9114AF0
:10086000143212688A430F4B14331A600289012A2A
:1008700006D10C4A143212680A430A4B14331A6028
:10088000427B012A06D1074A1C3212680A43054BF3
:100890001C331A60034A126822F00102014B1A60ED
:1008A00010BD0000006600401AB143690B4343616C
:1008B00002E043698B434361704730B50246002034
:1008C0000023146824F002041460146844F0010446
:1008D000146000E05B1C546804F001041CB94FF67E
:1008E000FF74A342F6D1546804F001040CB900204F
:1008F0006CE08C79012C04D1146844F080041460FD
:1009000003E0146824F080041460CC79012C04D135
:10091000146844F04004146003E0146824F04004B8
:1009200014600C7A012C04D1146844F02004146083
:1009300003E0146824F0200414604C7A012C04D1E4
:10094000146844F01004146003E0146824F01004E8
:1009500014608C7A012C04D1146844F008041460EB
:1009600003E0146824F008041460CC7A012C04D14C
:10097000146844F00404146003E0146824F00404D0
:1009800014608C78A407CD7844EA05640D7944EAB4
:1009900005444D7944EA05540D886D1E2C43D461FD
:1009A000146824F001041460002300E05B1C546808
:1009B00004F001041CB14FF6FF74A342F6D1546851
:1009C00004F001040CB1002000E0012030BD10B59E
:1009D00000F5D87303EB01131B6803F004031372D3
:1009E000137A53B900F5D87303EB01131B6840F277
:1009F000FF7404EA5353136009E000F5D87303EB66
:100A000001131B686FF0604404EAD303536000F5E0
:100A1000D87303EB01131B6803F00203537200F554
:100A2000D87303EB01135B6803F00F03937200F5B7
:100A3000D87303EB01135B681B0AD37400F5D873FA
:100A400003EB01139B68D37200F5D87303EB01131A
:100A50009B681C0A147300F5D87303EB01139B68A1
:100A60001C0C547300F5D87303EB01139B681B0E29
:100A7000937300F5D87303EB0113DB68D37300F5B0
:100A8000D87303EB0113DB681C0A147400F5D873E8
:100A900003EB0113DB681C0C547400F5D87303EBF3
:100AA0000113DB681B0E937421B9C36843F0200364
:100AB000C36003E0036943F02003036110BD00003D
:100AC00010B52C48007868B1002406E000202A49BF
:100AD00008552A490855601CC4B2082CF6DB0020D2
:100AE000244908702648808A000A2349087024484F
:100AF000007D48702248B0F86C00000A88702048D9
:100B000090F86C00C8701E48B0F8C400000A087164
:100B10001B4890F8C40048711948B0F81C01000A3D
:100B20008871174890F81C01C8711548B0F8740115
:100B3000000A12490870124890F874014870104871
:100B4000B0F8CC01000A88700D4890F8CC01C8704C
:100B50000020087148718871C8714FF40072082133
:100B60000548FFF7E3FD40F2FF1208210348FFF7B5
:100B7000DDFD10BD54000020440000204C0000208A
:100B80009000002010B502460020936803F08063B7
:100B9000B3F1806F00D110E0936803F00063B3F10C
:100BA000006F01D1012008E0936803F08053B3F196
:100BB000805F01D1022000E00420042874D002F5F7
:100BC000C07303EB00131B6803F0010402F5C0734C
:100BD00003EB00131C600B7A7BB94B7A0C8843EA59
:100BE000445302F5C07404EB00142468234302F557
:100BF000C07404EB0014236010E00B7A4C6843EAE5
:100C0000C4034C7A234302F5C07404EB0014246837
:100C1000234302F5C07404EB001423608B7A03F0C5
:100C20000F038B7202F5C07303EB00135B6823F0B4
:100C30000F0402F5C07303EB00135C6002F5C07390
:100C400003EB00135B688C7A234302F5C07404EB5A
:100C5000001463608B7B1C064B7B44EA03440B7BD4
:100C600044EA0323CC7A234302F5C07404EB001456
:100C7000A3608B7C1C064B7C44EA03440B7C44EA57
:100C80000323CC7B234302F5C07404EB0014E36020
:100C900002F5C07303EB00131B6843F0010402F577
:100CA000C07303EB00131C6010BD000010B50246BA
:100CB000002321B1012907D002290FD109E0906852
:100CC0001D4C00EA04030BE090681C4C00EA04038E
:100CD00006E090681A4C00EA040301E0002300BF1C
:100CE00000BF184C181BA34216D007DC83B16FF06D
:100CF0008060184470B1022818D111E0B0F5007F6F
:100D000010D0114C204448B1B0F5003F0ED10BE09B
:100D100002230DE000230BE0002309E0002307E09D
:100D2000012305E0012303E0012301E0002300BFCC
:100D300000BFD8B210BD000003000004000300088B
:100D400000000310000100080001FFF700208D499A
:100D500008608860486088828875C87541F2707044
:100D600008830020C8610862486200214FF080407B
:100D7000844AC2E90A10844A8248C0E90C12002061
:100D800080498863C8630A46106450640021104695
:100D90000165002011468864C864886500211046FA
:100DA0000166C165A0F86C1080F86E1080F86F10B5
:100DB00041F27071A0F87010002141678167C1672E
:100DC00000204FF080415832C2E90A0100216E4AEA
:100DD0006C485830C0E90C1200228263C26302647E
:100DE00042645838C0F8A81058308164C1640020AB
:100DF0006449C1F8B00000216248C0F8B810C0F8DA
:100E0000B410A0F8C41080F8C61080F8C71041F2E2
:100E10007071A0F8C8100021C0F8CC10C0F8D01034
:100E2000C0F8D4104FF080405649B031C1E90A20D3
:100E300055495448B030C0E90C2100218163C16399
:100E400001644164B038C0F80011B0308264C264FB
:100E500000204C49C1F8080100214A48C0F810118F
:100E6000C0F80C11A0F81C1180F81E1180F81F1199
:100E700041F27071A0F820110021C0F82411C0F8CF
:100E80002811C0F82C1100204FF080423F49C1E9E1
:100E90000A0200223C493D48C0E90C218263C2633A
:100EA0000264426400213748C0F858113748816411
:100EB000C16400203349C1F8600100213148C0F805
:100EC0006811C0F86411A0F8741180F8761180F8E8
:100ED000771141F27071A0F878110021C0F87C11EF
:100EE000C0F88011C0F8841100204FF080422749DB
:100EF0005831C1E90A020022234924485830C0E988
:100F00000C218263C2630021016441641D48C0F862
:100F1000B01100F5B0708264C26400201949C1F8B4
:100F2000B80100211748C0F8C011C0F8BC11A0F8E2
:100F3000CC1180F8CE1180F8CF1141F27071A0F879
:100F4000D0110021C0F8D411C0F8D811C0F8DC11BC
:100F500000204FF080410D4AB032C2E90A01002161
:100F6000094A0A48B030C0E90C1200228263C26309
:100F7000026442640348C0F8081200F5DC70826421
:100F8000C2647047900000200000E03F98010020FC
:100F900000EB400101EBC001234A02EBC101497B98
:100FA00000EB400202EBC0021F4B03EBC202127BBC
:100FB00001EB022109B200EB400202EBC00243F850
:100FC000321000EB400101EBC0011A4602EBC101F7
:100FD000CA7B00EB400101EBC00103EBC101897B3F
:100FE00002EB012109B200EB400202EBC00203EB6D
:100FF000C202516000EB400101EBC0011A4602EB56
:10100000C1014A7C00EB400101EBC00103EBC101CF
:10101000097C02EB012109B200EB400202EBC002A5
:1010200003EBC202916070479000002070470000FF
:1010300030B5044604254FF4302000F06FF8054623
:10104000042D17D10C48006940F002000A490861DC
:1010500008464461006940F0400008614FF43020C8
:1010600000F05CF805460448006941F6FD7108404F
:1010700001490861284630BD0020024004200B4988
:10108000C96801F0010109B101200EE00749C968F2
:1010900001F0040109B1022007E00449C96801F028
:1010A000100109B1032000E0042070470020024035
:1010B0000348006940F08000014908617047000062
:1010C0000020024070B504460D460426F00200F0F0
:1010D00025F80646042E11D10948006940F00100A8
:1010E000074908612580F00200F018F80646044818
:1010F000006941F6FE71084001490861304670BD43
:101100000020024002480349486003484860704795
:101110002301674500200240AB89EFCD00B50246B0
:101120000423FFF7ABFF034603E0FFF7A7FF0346E7
:10113000521E012B01D1002AF7D102B9052318460E
:1011400000BD2DE9F04102460025002600200023C5
:101150000024002791F803C00CF00F0591F803C09C
:101160000CF0100CBCF1000F03D091F802C04CEA57
:10117000050591F800C0BCF1000F31D014680020C3
:101180002BE04FF0010C0CFA00F3B1F800C00CEAB0
:1011900003069E4220D183004FF00F0C0CFA03F798
:1011A000BC4305FA03FC4CEA040491F803C0BCF10B
:1011B000280F06D14FF0010C0CFA00FCC2F814C045
:1011C0000AE091F803C0BCF1480F05D14FF0010CC3
:1011D0000CFA00FCC2F810C0401C0828D1D31460DF
:1011E000B1F800C0BCF1FF0F34DD546800202EE0E0
:1011F00000F1080C4FF0010808FA0CF3B1F800C038
:101200000CEA03069E4221D183004FF00F0C0CFA2A
:1012100003F7BC4305FA03FC4CEA040491F803C04D
:10122000BCF1280F05D100F1080C08FA0CF8C2F83F
:10123000148091F803C0BCF1480F07D100F1080CED
:101240004FF0010808FA0CF8C2F81080401C08287A
:10125000CED35460BDE8F081F0B50A4600230024E7
:101260000021002500F00046B6F1004F02D11D4ECE
:10127000F16901E01B4E7168C0F3034583B200F4CD
:101280004016B6F5401F08D121F07061154E766802
:1012900026F07066134F7E6012E000F48016B6F5FB
:1012A000801F06D1032606FA05F4A14341F07061C0
:1012B00006E0460D360103FA06F6B14341F07061CF
:1012C00022B1460D360103FA06F6314300F000461E
:1012D000B6F1004F02D1034EF16101E0014E7160A1
:1012E000F0BD0000000001404161704700BFFEE713
:1012F00008B50121082000F099F94FF4E040ADF85D
:10130000000010208DF8030003208DF802006946CC
:101310000448FFF716FF4FF4E0410248FFF7E4FFEF
:1013200008BD0000000C014000BFFEE72DE9F04FB2
:101330008BB083468A4600BF0AEB4A0101EBCA0123
:101340008B4A02EBC1014968ABEB010001F0A7FF3A
:1013500006460F460AEB4A0000EBCA00844901EB3F
:10136000C001D1E9128132463B46404601F054FDAE
:101370000AEB4A0202EBCA027D4B03EBC202C2E94E
:1013800012010AEB4A0000EBCA00194601EBC0014A
:10139000D1E9128121F000410022764B404602F053
:1013A000CFF825D20AEB4A0000EBCA00704901EBE6
:1013B000C00000221346D0E91281404602F0C0F876
:1013C0000BD200206B4A0AEB4A0101EBCA01684BC1
:1013D00003EBC101C1E912020AE0002266480AEBF0
:1013E0004A0101EBCA01624B03EBC101C1E91220C2
:1013F0000AEB4A0000EBCA005D4901EBC000D0E9EE
:10140000108342463046394602F0C2F9CDE9040164
:101410000AEB4A0000EBCA00554901EBC001D1E9D3
:101420000E834246DDE9040101F08CFFCDE908019D
:101430000AEB4A0000EBCA004D4901EBC000D0E9BD
:1014400012830AEB4A0000EBCA0001EBC000416BBB
:10145000006B4246CDE9000101F074FFCDE90401C3
:101460000AEB4A0000EBCA00414901EBC001D1E997
:101470000A8132463B46404601F064FFCDE9020155
:10148000DDE9042301F0C8FCCDE90601DDE908230C
:1014900001F0C2FC04460D460AEB4A0000EBCA000C
:1014A000334901EBC000C0E9106725F00041A046B8
:1014B0000022324B404601F009FF02D200242546AB
:1014C00045E00AEB4A0101EBCA01294A02EBC101DE
:1014D000B1F9180001F0E3FE804625F000404246D5
:1014E0000B46CDE908402046099902F029F823D29D
:1014F000002213462046294602F022F80DD20AEBBC
:101500004A0101EBCA011A4A02EBC101B1F9180004
:1015100001F0C5FE04460D4619E00AEB4A0101EB55
:10152000CA01134A02EBC101B1F91810484201F097
:10153000B6FE04460D460AE02046294601F080FE2C
:101540000FFA80F8404601F0AAFE04460D462046F8
:10155000294601F075FE00B20AEB4A0101EBCA010F
:10156000034A02EBC10188820BB0BDE8F08F000096
:101570009000002000409F4000409FC00000F03FCE
:101580007047000070B5002100230F22C47804B317
:10159000154C246804F4E064C4F5E064210AC1F148
:1015A0000403CA40447804FA03F1847814402143C8
:1015B00009010E4C0678A155047804F01F0501249A
:1015C000AC4005786D11AD0005F1E025C5F800418E
:1015D00009E0047804F01F050124AC40044D0678AE
:1015E000761145F8264070BD0CED00E000E400E007
:1015F00080E100E002490143024A116070470000A7
:101600000000FA050CED00E07047000029B1064A21
:10161000D2690243044BDA6104E0034AD26982438F
:10162000014BDA61704700000010024029B1064A00
:1016300092690243044B9A6104E0034A926982432F
:10164000014B9A61704700000010024030B5002144
:101650000022002400232D4D6D6805F00C0121B1FE
:10166000042905D0082923D105E0294D056022E091
:10167000274D05601FE0254D6D6805F47012234D60
:101680006D6805F48034022505EB92421CB9214DAA
:10169000554305600BE01D4D6D6805F400351DB127
:1016A0001C4D5543056002E0194D5543056002E0AD
:1016B000174D056000BF00BF144D6D6805F0F001C7
:1016C0000909154D6B5C0568DD4045600F4D6D687F
:1016D00005F4E061090A104D6B5C4568DD408560EA
:1016E0000A4D6D6805F46051C90A0B4D6B5C456885
:1016F000DD40C560054D6D6805F44041890B074D1F
:101700006B5CC568B5FBF3F5056130BD00100240A8
:1017100000127A0000093D002C0000203C0000204F
:1017200030B503460C461546002207E0184600F087
:1017300008F824F812009B1C501C82B2AA42F5DB68
:1017400030BD0146088870472DE9F05F80468A4623
:101750001746B8F1006F02D33348804501D3BDE886
:10176000F09FFFF7CFFCA8F1006B4FEADB25CBF32E
:101770004909C9F58064A74200DC3C464DE04FF0C2
:10178000006101EBC5204A142849FFF7C9FF002674
:101790000BE009EB0600254931F810004FF6FF7108
:1017A000884200D003E0701C86B2A642F1DB00BF85
:1017B000A6421BDA4FF0006101EBC520FFF738FCB1
:1017C000002608E03AF8160006EB0901174A22F84D
:1017D0001100701C86B2A642F4DB4FF0006101EBF1
:1017E000C5204A14114900F023F804E0224651466E
:1017F000404600F01DF8A74200D10FE06D1C4FF0ED
:1018000000090AEB440AA044381B87B2B7F5806F81
:1018100002DD4FF4806400E03C46B0E700BFFFF714
:1018200047FC00BF9BE7000000000808A002002062
:101830002DE9F04105460E461746002407E036F82C
:1018400014102846FFF73EFCAD1C601C84B2BC425D
:10185000F5DBBDE8F081704710B500F001F810BD70
:101860000CB50020019000903348006840F48030AF
:101870003149086000BF3048006800F40030009033
:101880000198401C0190009818B90198B0F5A06F1C
:10189000F1D12948006800F4003010B10120009017
:1018A00001E0002000900098012843D123480068FF
:1018B00040F01000214908600846006820F003004D
:1018C00008600846006840F0020008601A48406856
:1018D000194948600846406848600846406840F436
:1018E000806048600846406820F47C1048600846E4
:1018F000406840F4E81048600846006840F0807096
:10190000086000BF0C48006800F000700028F9D0A3
:101910000948406820F003000749486008464068CD
:1019200040F00200486000BF0348406800F00C002F
:101930000828F9D10CBD0000001002400020024030
:10194000042808D14FF0E021096941F004014FF06B
:10195000E022116107E04FF0E021096921F0040164
:101960004FF0E022116170477047000010B5134836
:10197000006840F0010011490860084640681049BD
:1019800008400E494860084600680E4908400B4967
:1019900008600846006820F4802008600846406817
:1019A00020F4FE0048604FF41F008860FFF754FFEA
:1019B0004FF000600449086010BD000000100240B4
:1019C0000000FFF8FFFFF6FE08ED00E008B501217A
:1019D0001C4800F082F8002833D00121194800F09B
:1019E0006DF81949086D0021FFF7A0FC1649D1F8E0
:1019F000A8000121FFF79AFC1349D1F80001022148
:101A0000FFF794FC1049D1F858010321FFF78EFC31
:101A10000D49D1F8B0010421FFF788FC0A49D1F83B
:101A200008020521FFF782FCFFF74AF80648C06D5F
:101A300000900548D0F8A8304268016D03A0FEF779
:101A4000EBFB08BD000400409000002025642C251D
:101A5000642C25642C25640A000000007FB505462F
:101A60000C4601210220FFF7D1FDADF80850ADF87A
:101A700004400020ADF80A00ADF8060001A90E48A8
:101A800000F046F8012211460B4800F037F81D20FF
:101A90008DF8000000208DF8010003208DF8020071
:101AA00001208DF803006846FFF76CFD0121024814
:101AB00000F007F87FBD000000040040CA43028226
:101AC000704721B1028842F00102028004E00288DE
:101AD0004FF6FE731A400280704730B50246002070
:101AE00000230024158A05EA0103958905EA01040B
:101AF00013B10CB1012000E0002030BD1AB1838980
:101B00000B43838102E083898B438381704700000C
:101B1000002202881D4B98420ED01D4B98420BD0DC
:101B2000B0F1804F08D01B4B984205D01A4B984219
:101B300002D01A4B984204D14FF68F731A404B884B
:101B40001A43174B984207D0164B984204D04FF6D1
:101B5000FF431A40CB881A4302808B8883850B8809
:101B600003850A4B98420BD0094B984208D00E4B84
:101B7000984205D00D4B984202D00D4B984201D1AE
:101B80000B7A03860123838270470000002C0140FA
:101B9000003401400004004000080040000C0040F8
:101BA000001000400014004000400140004401408B
:101BB000004801402DE9FF5F6E480078612802D19E
:101BC00001206D4908706B480078622802D102201C
:101BD000694908706848007801280AD1654800788A
:101BE0006649674A1278885465480078401C644901
:101BF00008706148007802287DD1604840787728D5
:101C00007AD15F4800785F49087034E05C49097810
:101C10005C4A1278881A01F042FB804642460B4625
:101C20000020594900F074FB04460D4655490978D7
:101C3000491E524A515CA1F1300001F030FB0646CA
:101C400022462B4601F07EFB82468B464F480068B9
:101C500001F088FE52465B46CDE9000101F0DCF858
:101C6000CDE9020101F0A6F848490860454800782E
:101C7000401E44490870434800780428C6DA3F48AB
:101C80008078442842D049281FD050285CD1404950
:101C90003E48006801F092FE044601F063FE3D4AB2
:101CA000C2E90A013A493948006801F087FE044652
:101CB00001F058FE374A5832C2E90A013348006839
:101CC00001F05AFF344908803EE031492F4800684E
:101CD00001F074FE044601F045FE2E4AC2E90C01F3
:101CE0002B492A48006801F069FE044601F03AFEDB
:101CF000284A583201E03AE02CE0C2E90C012348BE
:101D0000006801F039FF244948801DE020491F4840
:101D1000006801F053FE044601F024FE1D4AC2E9AA
:101D20000E011B491948006801F048FE044601F005
:101D300019FE184A5832C2E90E011448006801F031
:101D40001BFF1549888000BF00BF062212491348B7
:101D5000FFF7FAFC00200849087009490870094992
:101D600008700A49086032210448FEF7D1FABDE83C
:101D7000FF9F0000250000202200002058000020C6
:101D80002300002024000020000024402800002020
:101D90000000C842900000201C000020000007083E
:101DA00021B1828942F40052828104E082894DF699
:101DB000FF731A4082817047F0B503460024002665
:101DC0000025002040F66A17B94200D100BF18462E
:101DD000C1F3421401F01F06012707FA06F5012C92
:101DE00001D10C3004E0022C01D1103000E014309D
:101DF0001AB107682F43076002E00768AF43076026
:101E0000F0BD00002DE9F04786B005460E460024DF
:101E1000A24600BFA1460027B08900B100BF2F46EF
:101E20002C8A4CF6FF700440F08804432C82AC8965
:101E30004EF6F3100440B088318908437189084395
:101E40000443AC81AC8A4FF6FF400440B0890443A0
:101E5000AC8201A8FFF7FAFB1F48874202D1DDF8E8
:101E600010A001E0DDF80CA0A88900F4004040B10A
:101E70000AEBCA0000EB0A1031684900B0FBF1F828
:101E800007E00AEBCA0000EB0A1031688900B0FBDA
:101E9000F1F86420B8FBF0F004012009642101FB93
:101EA0001089A88900F4004040B1322000EBC9003D
:101EB000B0FBF1F000F00700044308E0322000EB33
:101EC00009106421B0FBF1F000F00F0004432C81F5
:101ED00006B0BDE8F08700000038014010B586B0BC
:101EE00001AA00217D48FEF772FD40F2022201980E
:101EF000811A904223D00ADC0F2872D017286ED0A6
:101F00001F286DD0A0F20120002817D108E0012978
:101F100025D0022933D0032940D00429F5D14DE042
:101F2000002406E00DF10F00015D6D480155601CB5
:101F3000C4B2082CF6DB0020FFF72AF8CAE0002420
:101F400007E00DF10F00015D654858300155601C38
:101F5000C4B2082CF5DB0120FFF71AF8BAE0002420
:101F600007E00DF10F00015D5D48B0300155601CC8
:101F7000C4B2082CF5DB0220FFF70AF8AAE000241F
:101F800006E00DF10F00015D56480155601CC4B21A
:101F9000082CF6DB0320FEF7FBFF9BE0002407E0A4
:101FA0000DF10F00015D4F4858300155601CC4B25F
:101FB000082CF5DB0420FEF7EBFF8BE0002407E0A4
:101FC0000DF10F00015D4748B0300155601CC4B2EF
:101FD000082CF5DB0520FEF7DBFF7BE001E027E0C6
:101FE0004FE0DDF80F004049086040493E48006876
:101FF00001F0E2FD3C4908600846006801F0A0FDE0
:1020000037490C390865DDF813003749086037494E
:102010003548006801F0D0FD334908600846006883
:1020200001F08EFD01462E480C38C0F8A81051E092
:10203000DDF80F002C4908602C492B48006801F09E
:10204000BBFD294908600846006801F079FD01469A
:1020500023480C38C0F80011DDF81300224908604D
:1020600022492148006801F0A7FD1F490860084681
:10207000006801F065FD014619480C38C0F8581198
:1020800028E0DDF80F001849086018491648006874
:1020900001F092FD144908600846006801F050FD07
:1020A00001460F480C38C0F8B011DDF813000E4996
:1020B00008600E490C48006801F07EFD0A4908607E
:1020C0000846006801F03CFD014605480C38C0F8A0
:1020D000081200BF00BF06B010BD00000064004041
:1020E0009C000020A40100204000002000007A4451
:1020F00000BFFEE7490050EAC12018BF04204A0D86
:1021000018BF40F0010040F2FF72B2EB515F08BF10
:1021100040F00200012808BF052070472DE9F0417A
:102120004F1E00EBC7010446D1E9000115461E46CB
:1021300037F006020DD02A46334601F003F97F1E20
:1021400004EBC703D3E9002300F066FE37F0060274
:10215000F1D1022F25D0042F13D0062F18BFBDE8D0
:10216000F0812A46334601F0EDF8D4E90A2300F065
:1021700053FE2A46334601F0E5F8D4E9082300F07F
:102180004BFE2A46334601F0DDF8D4E9062300F081
:1021900043FE2A46334601F0D5F8D4E9042300F083
:1021A0003BFE2A46334601F0CDF8D4E9022300F085
:1021B00033FE2A46334601F0C5F8D4E90023BDE8D2
:1021C000F04100F029BE00000022134610460149EC
:1021D00000F0DEBE0000F03F00F01EBE00221346FD
:1021E0001046114600F0D4BE40F2013200204FF0FC
:1021F000E04101F0DFBD0000024A0020110701F0BC
:10220000D9BD000001FDFFFF014600BF704700007F
:1022100010B56FF00400FFF793FB0A4800680A4905
:10222000B0FBF1F0094908700846007800EB400166
:10223000C1EBC0104FF6FF7101EAC00004490880ED
:1022400010BD00000000002000127A0014000020E1
:10225000160000200146114A12884A434FF0E0233D
:102260005A6100229A611A46126942F001021A610B
:1022700000BF4FF0E022106900F001021AB100F433
:102280008032002AF5D04FF0E022126922F00102DC
:102290004FF0E0231A6100229A6170471600002077
:1022A00000BF054A128802F04002002AF9D0C2B2EB
:1022B000014B1B1D1A807047003801404FF4A0608D
:1022C000FFF798F9FFF7A4FF4FF4E13000F022FD8B
:1022D000FFF70EF80223082207210020FEF72EF94F
:1022E000FEF734FD48F69F410F20FFF7B7FB0BE0E8
:1022F0004FF4FA70FFF7AEFF0448006808B90120F8
:1023000000E0002001490860F2E70000B4812142AA
:102310002DE9F04D16460F4694B01C4621F00041C1
:1023200023F00042002814BF4FF0010C4FF0000CC6
:102330000CEB470CFE4B0CEB03054FEA630C6545B9
:102340002BD3350018BF012505EB44051D44F94B7F
:102350009D4222D3F84B52EA060C02D09F4205D18F
:1023600048B914B000201946BDE8F08D002808BF18
:102370004FF0000C01D04FF0010C0CEB470313F5AC
:10238000001F0AD8002E14BF4FF0010C4FF0000CB4
:102390000CEB440313F5001F07D914B03246234653
:1023A0003946BDE8F04DFFF717BFDFF890834FF0D7
:1023B000000A002FB8BF424523DAE14B9A42A8BF7A
:1023C0004FF0020A1DDADC4B93421ADCDD4B03EBC3
:1023D0002253142B08DDC3F1340C26FA0CF303FA54
:1023E0000CFCB4450DD108E05EB9C3F1140C22FA1F
:1023F0000CF303FA0CFC944503D103F00103C3F181
:10240000020A51EA00031BD1002C19DA002F18BF71
:10241000BAF1020F02D0BAF1010F07D00220FDF786
:10242000A2FF14B0BDE8F04DFFF7CEBE0220FDF7CD
:102430009AFFFFF7C9FE14B081F00041BDE8F08DAE
:10244000330070D1424525D107F1804212F5801248
:1024500001BF00280020B84914B008BFBDE8F08DC6
:10246000B548884207DC002CA1BF1846214614B0AD
:10247000BDE8F08D07E0002CBFBF184684F0004196
:1024800014B0BDE8F08DB0497944D1E9000114B031
:10249000BDE8F08DDFF8A0C262452AD1002C24DA15
:1024A00039B1414517D1002804BF002002461CD194
:1024B00006E040B10220FDF756FFFFF795FE0A4601
:1024C000394600F0D7BA9D4A394614B0002062F36D
:1024D0001E01BDE8F08D08DA14B03B46BDE8F04DB2
:1024E00002460020614600F053BD14B03946BDE8F5
:1024F000F08D414517DAB4F1804F0CD0A4F10053B0
:10250000B3F1FF530FD13B1E0DDB14B01946BDE8EC
:10251000F04D00F0D9BB3B4614B00246BDE8F04D8B
:10252000194600F00FBF050027F000433AD1E1B192
:10253000414537D1002F06DD002CA1BF00204146C8
:1025400014B0BDE8F08D002F01DD002C1FDB002F43
:1025500016DA002C14DBBAF1010F4FF0000014BFA3
:1025600076497A4914B0BDE8F08DBAF1020F18BF70
:10257000002F0CD0BAF1010F09D1002F07DA0BE0C0
:10258000002FB8BF002C0DDABAF1010F04D00020E3
:1025900014B00146BDE8F08D14B000204FF00041AA
:1025A000BDE8F08D4FF0010808EBE77CCDF814C0D2
:1025B0005CEA0A0C0DD0DFF898C162457EDDDFF8D9
:1025C00094C1654B624512DD8B420ADB002C18DB9F
:1025D00023E00120FDF7C7FE14B0BDE8F04DFFF782
:1025E000FDBD554A8A4202DC002C0ADC15E0994206
:1025F00002DA002C11DA04E04F4B994219DD002C6D
:102600000BDD0220FDF7AFFEFFF7EEFD4B4A14B0E5
:1026100061F31E021146BDE8F08D0220FDF7A3FE16
:10262000FFF7EAFD444A14B061F31E021146BDE80B
:10263000F08D0022394601F0ABF807460D466FF0E9
:10264000010201F0B7FB4FF05532444B00F0AEFFF2
:102650003A462B4600F076FE0022414B00F0A6FFE2
:1026600080468B463A462B461046194600F06AFED5
:1026700042465B4600F066FE88460E904FF0C04230
:10268000384B3846294600F05DFE83460091364AB5
:10269000344B41460E9800F055FE80460191334A76
:1026A000334B3846294600F04DFE4246019B01F06F
:1026B0006FF80D4602460B460C9000E011E05846BC
:1026C000009900F0A9FB002788465A463846009B2F
:1026D00001F05EF82B460C9A00F068FF024600F00D
:1026E00079B90020B1F5801F07DA3522284619464E
:1026F00001F060FB05466FF0340000EB2150A0F2C2
:10270000FF300190C1F3130040F07F6141F0405170
:10271000029118498842D8BF4FF0000B35DD1649A9
:102720008142C8BF4FF0010B2FDC4FF0000B25E0BA
:10273000FFFF1F00FFFF0F000000F03F0000F07FD1
:102740000000404301FCFFFF3C1A00000000F0FFC6
:102750000000E0410000F043FFFFEF3F5555D53F3B
:102760000000E03F4715F73FFE822B6544DF5DF830
:102770000BAE543E8E9803007AB60B000198401CB5
:1027800001900298A0F580100290FF4802997844C9
:1027900000EBCB000991D0E9002328460B9312925D
:1027A00000F0F6FF00910A9028460B9B129A0999B7
:1027B00000F032FB02460B460020F44900F0E8FB33
:1027C000CDE90C010B46024600990A9800F0BAFDCB
:1027D0000690EF48884600277844029900681090D8
:1027E0004FF0005040EA610000EB8B4000F5002103
:1027F00002910B9B129A109800F0CAFF2A46099B7F
:1028000000F0D4FE3A46434600F09CFD0891129039
:1028100038464146029B109A00F094FD009B0A9AAC
:1028200000F0C4FE089B129A00F0B2FFDDE90C2311
:1028300000F088FD0B91069A129043461046194607
:1028400000F080FD05460246D2480B460A9106215B
:102850007844FFF763FC0A9B2A46089102901046D1
:10286000194600F06FFD089B029A00F06BFD0546CB
:102870000991434638461946069A00F0CDFA0B9B5B
:10288000129A00F05FFD2A46099B00F0C5FACDE9D7
:1028900008013A4643461046194600F053FD0A9196
:1028A0000022BD4B009000F0B7FADDE9082300F0EC
:1028B000B3FA0D463A46B84B384600F069FF0A9B1A
:1028C000009A00F065FFDDE9082300F06FFECDE916
:1028D00008013A462B461046414600F033FD009170
:1028E0000A90DDE908014346069A00F02BFD0690A8
:1028F00088462B463A460B99129800F023FD434632
:10290000069A00F089FA80460B4602460D9100991E
:102910000A9800F081FA00200F460546009B0A9AAB
:1029200000F036FF42460D9B00F040FE88460E90B8
:102930004FF06042994B2846394600F003FD029162
:102940000090974A954B41460E9800F0FBFC80465C
:102950000391944A944B2846394600F0F3FC4246D2
:10296000039B00F059FA914A7A4402EBCB03D3E976
:10297000002300F051FA05460791019800F08FFC02
:102980000C9003912A46079B0299009800F044FAA4
:10299000874A7A4402EBCB03D3E9002393460193A1
:1029A00000F03AFA039B0C9A00F036FA00278846AA
:1029B0003846039B0C9A00F0EBFE5A46019B00F050
:1029C000E7FE029B009A00F0E3FE2A46079B00F018
:1029D000EDFD02460020069005986C4DAAF101031A
:1029E000184301D1734D069000200B4604903046E9
:1029F000214600F0A7FC82468B4623463046194606
:102A0000049A00F0C5FE3A46434600F09BFC52464D
:102A10005B4600F001FA06468A463A46434621469E
:102A2000049800F08FFC04460F463246534600F0EF
:102A3000F3F9614A8B46914221DBABEB020353EA87
:102A4000000210D122463B4600F0A2FE80460391D0
:102A50005A4A5B4B3046514600F0DEF94246039B32
:102A600000F06EFD27D20220FDF77DFCFFF7BCFBD6
:102A70000A46294614B062F31E01BDE8F08D514BA1
:102A80002BF000429A4216D34F4A0BEB020353EA53
:102A9000000208D122463B4600F07AFE32465346F9
:102AA00000F04EFD07D80220FDF75DFCFFF7A4FB08
:102AB0000A462946DEE72BF000404449444A01EB30
:102AC00020514FF00008824223DA481C4FF4801155
:102AD00021FA00F058443F4AC0F30A517A443E4B71
:102AE000A1F2FF31CB4020EA0303C0F3130040F40E
:102AF000801CC1F1140012682CFA00F8BBF1000F21
:102B0000B8BFC8F100082046394600F041FE04462F
:102B10000F4622463B463046514600F07DF94FF0C5
:102B2000000B5A462D4B5846039100F00BFC0091C8
:102B30000A902B4A2B4B5846039900F003FC049152
:102B4000029022463B465846039900F021FE324649
:102B5000534600F02BFD244A244B00F0F3FB049B6A
:102B6000029A00F059F907468A46009B0A9A00F03B
:102B700053F904460E46009B0A9A00F009FE3A46B5
:102B8000534600F013FD33E0AE1600000000F03FA6
:102B9000EC1600001C1600000000084009C7EE3FBC
:102BA000FD033ADCF5015B14E02F3EBEF414000097
:102BB000BA1400000000F0BF00009040FE822B65B8
:102BC0004715973C00CC904000346F3F01FCFFFF5D
:102BD0000000E03FE8130000FFFF0F00432EE63F38
:102BE000396CA80C615C20BEEF39FAFE422EE63F3C
:102BF0000746224633460F911046194600F0A2FBC5
:102C0000834602462E488A460B4605217844FFF744
:102C100085FA5A46534600F095FB2246334600F0AB
:102C2000C5FC82468B463A46204631460F9B00F053
:102C300089FB3A460F9B00F0EFF80F460A900022FE
:102C40004FF080435046594600F0A2FD039100909A
:102C500052465B462046314600F074FB039B009AC7
:102C600000F096F93B460A9A00F092FD2246334660
:102C700000F08EFD0022134B00F098FC0E46044637
:102C800001EB08510815002810DC42462046314669
:102C900001F090F8FFF72EFA042808BFFFF7ACFA0E
:102CA00042462046314601F085F8044606980B4618
:102CB00014B022462946BDE8F04D00F043BB0000A9
:102CC000901200000000F03F2DE9F04106460F464B
:102CD00000F078FC04000D4618BF0120284320F0C6
:102CE0000040C0F17F6000F1E040C00F0ED0301C0A
:102CF00018BF0120384320F00040C0F17F6000F190
:102D0000E040C00F04BF0120FDF72DFB20462946FF
:102D1000BDE8F08110B586B00446012144F20400FC
:102D2000FEF784FC4FF40070ADF8140003208DF81A
:102D3000160018208DF8170005A91C48FEF701FAA7
:102D40004FF48060ADF8140004208DF8170005A939
:102D50001648FEF7F6F925208DF8000003208DF8BF
:102D600001008DF8020001208DF803006846FEF78F
:102D700009FC01940020ADF80800ADF80A00ADF898
:102D80000C00ADF810000C20ADF80E0001A90848A9
:102D9000FFF738F8012240F225510548FFF70CF8FB
:102DA00001210348FEF7FCFF06B010BD00080140FA
:102DB0000038014021F00042A2F16052B2F5801FBC
:102DC00001F0004328BFD2F17F6C0BD95FEA001CF1
:102DD00043EAC20242EB507018BF704728BF20F090
:102DE00001007047B2F5801FBCBF184670474FEA1C
:102DF000410C1CF5001F02D2084600F0A4BF70B5BC
:102E000000F04AFB00000089FFF7F6BF4FF00040DA
:102E1000A0F580007047000010B591EA030F48BF8D
:102E200083F0004300F1BC84841A71EB030C05D2DB
:102E3000121943EB0C03001B61EB0C01DFF824E1DA
:102E40004FEA1154A4EB135C1EEA430F18BF9EEA2D
:102E5000445F73D023EA0E03DCF1200E21EA045113
:102E600043F4801332D322FA0CFE10EB0E0023FA47
:102E70000CFE41EB0E01CCF1200E03FA0EFE10EB1E
:102E80000E0051F10001B1F5801FCCF1200E32D2BD
:102E900001EB045112FA0EF2BDE8104058BF704722
:102EA000401C38BF5FEA420218BF7047002814BFB9
:102EB00020F0010041F100014FEA410313F5001F2A
:102EC00038BF7047A1F1C04100F034BB012A43EB89
:102ED0000302ACF1200CDCF11F0E32BF4FF0000EEC
:102EE00023FA0CF310EB030041EB0451B4EB115F38
:102EF000D0D0A1EB045101F5801149085FEA300000
:102F000001EB04510ED350F1000038BF12FA0EFE4F
:102F100008D1BDE81040C9E7401C38BF5FEA420253
:102F2000CAD1C3E7BDE810404FEA410313F5001FC3
:102F300038BF7047A1F1C04100F0FCBA9EEA445F7F
:102F400008D011EA5E0FBDE8104004BF01F0004157
:102F500000207047BDE8104070B500F09DFA00BF3A
:102F600064FBBE3E0000E0FF02494FF0000000F0AD
:102F7000EFBE00BF0000F87F491058BFC1F14041CB
:102F80005B1058BFC3F140438B42EFF300807047A2
:102F90002DE9C04130B4DFF8A0C23CEA111418BFDB
:102FA0003CEA131400F0EC8081EA03051CEA1114DA
:102FB00044EAD57418BF1CEA131500F0C780A4EBCF
:102FC00005044FF0004545EAC12145EAC32341EA23
:102FD000505143EA525304F17F74994204F500348E
:102FE0004FEAC0204FEAC22208BF904200F09C8006
:102FF0004FEA13650FF24016765D4FEA134506FB64
:1030000005F7C7F1807706FB07F74FEAD737A7FB2D
:1030100003687642C8F58038A7FB06CE38BFA8F112
:10302000010807FB08E64FF0000EA6FB028CE6FB4A
:1030300003CEDCF1000CCEF1004E38BFAEF1010E34
:10304000A6FB0C584FF000074FF00005E6FB0E877B
:10305000A1FB08C6A0FB07CE16EB0E0645F1000546
:10306000E1FB076515F1E04E7EBFA4F580345FEA11
:1030700046066D4116F1800745F100054FEA172716
:103080004FEA066647EA0567A6F1DE46B6F1805FBD
:103090004FEA15251FD9384624F0010C05EBC47101
:1030A000BCF1FE6F01EB0C1102D8F0BCBDE8008151
:1030B00024425CBF01F5801E9EEAC47F02D4F0BCAE
:1030C000BDE80081244238D4F0BCA1F1C041BDE884
:1030D000004100F02FBA4FEAD22242EA43524FEAAF
:1030E000D323A7FB02864FEAD02040EA415007FBDA
:1030F00003661EEA0E0F4FEAD12105FB026658BF98
:10310000A6EB0056B6EB00564FEA520E4EEAC37ECF
:1031100018EB0E0E56EB530EBDD518EB02085E41B0
:103120007F1C55F10005B6E74FF480154FF00007FE
:103130004FF000064FF00008ADE7F0BC4FF0000084
:1031400001F1C04101F00041BDE8008111EA0C1F0E
:103150000CEA131500D00CE013EA0C1F00F02580D8
:103160004FF00000F0BC81EA030101F00041BDE82E
:103170000081F0BCBDE8004181EA030100F0DAB94A
:10318000F0BCBDE8004170B500F086F9097EFC3E58
:1031900000F007B881EA03014FF0000001F00041A0
:1031A000704781EA030100F0C5B9F0BCBDE80041F9
:1031B0004FF0000021497047FFFDFBF9F7F5F4F2ED
:1031C000F0EEEDEBE9E8E6E4E3E1E0DEDDDBDAD8C2
:1031D000D7D5D4D3D1D0CFCDCCCBCAC8C7C6C5C420
:1031E000C2C1C0BFBEBDBCBBBAB9B8B7B6B5B4B337
:1031F000B2B1B0AFAEADACABAAA9A8A8A7A6A5A422
:10320000A3A3A2A1A09F9F9E9D9C9C9B9A999998E5
:103210009797969595949393929191908F8F8E8E88
:103220008D8C8C8B8B8A8989888887878685858415
:1032300084838382828181800000FF070000F87F01
:103240004FEA41034FEA5353A3F58063D3F11E03C2
:10325000C8BFD3F1210C0CDD4FF0004242EAC1227D
:1032600042EA505232FA03FC8CEAE17CACEBE170AA
:103270007047102BC4BF0020704703F5787CBCF169
:10328000FF3F04D06FF0004282EA2100704770B522
:1032900000F002F94992248000207047F2E710F014
:1032A000004248BF4042B0FA80F310FA03F10AD05E
:1032B000C3F11D0303F580634FEA415002EB035253
:1032C00002EBD12170474FF00000704751EA030C28
:1032D00017D41CF5801F58BFBCF5801F00F1068075
:1032E000994218BF704708BF9042704707D711F541
:1032F000801F58BF13F5801F19D499427047894227
:1033000070471CF5801F08D5BCF5801FF7D58B4290
:1033100018BF704708BF824270474FF4001C1CEB77
:10332000410F38BF1CEB430F01D28B42704770B581
:1033300000F0B2F8922449004FF000514FF0805352
:10334000FFF71ABEDFF848C170B51CEA111E1EBF98
:103350001CEA13159EEA0C0F95EA0C0F00F06F8023
:1033600081EA030423EA4C134EEAD47E21EA4C118D
:1033700041F4801143F48013AE44A1FB024CA0FB46
:103380000365AEF17F7E361955EB0C05A1FB034CAE
:103390004CF10003A0FB021C16EB0C06654153F137
:1033A0000003094218BF46F0010613F4007F0BD159
:1033B0004FEA03314FEA0530340341EA155140EA40
:1033C00016506FF003020AE04FEAC3214FEAC5200E
:1033D000F40241EA555140EA56506FF0020202EB06
:1033E0002E4201EB025585EACE710AD05FEA440C09
:1033F00018BF24F0004450F1000041F1000120EA20
:10340000D47040F2FE7C624500D270BDA84214BF69
:103410004FF080444FF04044002E08BF0024BEF11E
:10342000806FA8BFA1F1C041BDE8704080F28280EA
:103430004FF0000001F1C04101F0004170479EEAE9
:103440000C0F0CEA131518BF95EA0C0F06D04FF0BD
:10345000000081EA030E0EF0004170BD00F01CF880
:103460008900013E00F007B800F009B84FEA430CAC
:103470005FEA5C5C08D081EA030100F05BB84FEAC8
:10348000410C5FEA5C5CF6D14FF0000001497047E7
:103490000000FF070000F87F0EF1020E2EF0030E71
:1034A0005EF8046B364205D4012A43EB030515F59B
:1034B000001F12D8012841EB010C1CF5001F0CD88D
:1034C0000ED14FEAD17C15F5001F0CEB4C0C0CF122
:1034D000020C08BF4CEBD37C04E04FF0080C01E079
:1034E0004FEAD37C0CEB4C0526FA05F606F00706EE
:1034F000B6F1040C06D20EEB860CBDE870404CF021
:10350000010C6047DFE80CF0090B02024FF00041AC
:103510004FF00000A1F5002170BD194610460128AA
:1035200051EB010418BFD4F5001484BF002001F052
:10353000004170BD0808A0F500114FEA3101704745
:1035400053EA010C17D41CF5801F58BFBCF5801F2F
:1035500000F106808B4218BF704708BF8242704757
:1035600007D713F5801F58BF11F5801F19D48B4260
:1035700070479B4270471CF5801F08D5BCF5801F23
:10358000F7D5994218BF704708BF904270474FF473
:10359000001C1CEB430F38BF1CEB410F01D29942BA
:1035A00070470FB40CBC03BCFFF7C1BE91EA030F18
:1035B00010B581F000413FF537AC83F0004300F0D7
:1035C000EFB800002DE9F04101F5801CBCF5001FAB
:1035D000C0F2C3804FEA115C21EA0C510CF1FD0CE2
:1035E00041F480115FEA5C0C0CF5C07C01D3400013
:1035F00049413DA4890241EA905187028E0E0A0C8E
:10360000A45D04FB04F602FB06F6C6F14046A4FBEB
:103610000662F60D46EA422606FB06F4A4FB0123E9
:103620005242C3F1404338BF5B1EA6FB0242002456
:10363000E6FB0324D20B42EA4446A6FB0623A1FB89
:1036400002E2A3FB07E4A4184FF0000252F10002CB
:10365000E3FB01426442C2F1404E38BFAEF1010EBD
:10366000A6FB04234FF00002E6FB0E32A2FB03464A
:103670004FF00004B61954F10004E2FB0264A1FB10
:1036800006E6A4FB07E816EB08064FF0000858F121
:103690000008E4FB01687642C8F1405838BFA8F141
:1036A0000108A2FB06E4A3FB08E52D194FF0000476
:1036B00054F10004E2FB0854A1FB05E6A7FB04E873
:1036C00018EB06084FF0000656F10006E1FB0486F1
:1036D00018F1200556F10006A809A8F11B08B10948
:1036E00008F03F08B8F10A0F40EA86601CD901EBE8
:1036F0000C51BDE8F08100BFFCF5EEE8E2DDD8D367
:10370000CFCBC7C3C0BDB9B6B4B1AEACA9A7A5A352
:10371000A19F9D9B9A9896959392908F8D8C8B8963
:103720008887868584838281A0FB006800FB01F284
:1037300008EB4208B8EB872807D5341858EB01048A
:10374000D5D5401C51F10001D1E7341A78EB0104C2
:10375000CDD4401E71F10001C9E75FEA4C0C5FEA6D
:103760009C5C0DD105D34FF0000001F00041BDE895
:10377000F081BDE8F04170B5FFF78EFE6DDBFFBE56
:10378000BDE8F0414FF00000004970470000F87FAD
:1037900010B591EA030F48BF83F000433FF544ABF7
:1037A000841A71EB030C07D212198CF0004C43EB16
:1037B0000C03001B61EB0C01DFF8A4E14FEA11548C
:1037C000A4EB135C1EEA430F18BF9EEA445F00F0AF
:1037D000B08023EA6E03524221EA0451C3EB6E0328
:1037E00038BF5B1EDCF1200E25D322FA0CFE10EB55
:1037F0000E0043FA0CFE41EB0E01CCF1200E03FA51
:103800000EFE10EB0E0051F10001CCF1200E29D478
:1038100012FA0EF201EB0451BDE8104058BF704798
:10382000401C1CBFB2F1004F704700280CBF491C60
:1038300020F00100704712EB020E43EB030218BFA9
:103840004FF0010E4EEA4202ACF1200CDCF11E0EEC
:1038500054D943FA0CFE10EB0E0051F1FF31CCF1BC
:103860001E0ED5D50EF1010E12FA0EFE404141EBAF
:10387000010101EB445C5FEA5C5C10D910EBDE7087
:1038800001EB045138BFBEF1004FBDE8104018BF36
:10389000704700280CBF491C20F00100704730D24F
:1038A0004FEAD42C11F5001124F400641BD0B1FAB6
:1038B00081F20B3AA41AA41ED2F12003914030FAEF
:1038C00003F31943904001EBCC71002C01EB045140
:1038D000BDE81040A8BF704701F1C0414FF00000A3
:1038E00001F000417047B0FA80F310FA03F100D103
:1038F00010BDE41A173C4805C90AE4E701EB04517E
:1039000010BD491001EB0451BDE810404FEA3000F2
:1039100002E04FF0000170474A0008BF0042F8D0B3
:10392000B2F5001F28BF704701F000414FF00000C2
:1039300070479EEA445F07D011EA5E0FBDE8104071
:1039400004BF002100207047BDE8104070B5FFF7AC
:10395000A3FD00BF40DFF63E83F0004110467047F4
:103960000000E0FF43004FEAD30C4FEA3C0C434019
:103970001FBF40070CF1605113F0FE4F70471CF061
:10398000006F03D100200CF0004170470CF00043A1
:1039900043EA507010B540EACC0000F08EF900BF49
:1039A000000000924FEA0001FFF7C4BD4FF0004154
:1039B0004FF00000A1F50021704700004FF47F0C8C
:1039C0001CEAD0121EBF1CEAD11392EA0C0F93EA34
:1039D0000C0F00F0858090EA010F48BF42F480721E
:1039E00040F4000C41F400002CF07F4120F07F40B7
:1039F00000B58142A2EB03020FF2081CACEB504E63
:103A0000C0F100009EF800E04FEA4E0E00FB0EFCF5
:103A100038BF49004FEA2C1C02F5FA020CFB0EF3EA
:103A20004FEACE1E4FEA112C4FEAC1210EEB635E26
:103A300042EB22420EFB0CFC4FEA1C5300FB03112D
:103A40004FEA112C4FEA01310EFB0CFC4FEADC4C23
:103A500000FB0C11C14228BF09184CEB03335DF881
:103A600004EB10EB410143EBC250B2F57C0F38BFC1
:103A7000704729D512F0F00F1CBF00F1C04000F0D4
:103A800000407047008182838485868788898B8C7B
:103A90008D8E8F919293959697999A9C9D9FA0A2B7
:103AA000A3A5A7A8AAACAEB0B2B3B5B7B9BCBEC007
:103AB000C2C5C7C9CCCED1D4D7D9DCDFE2E6E9ECA8
:103AC000F0F3F7FAFE0000004FEA400C0CF1807CA6
:103AD000BCF17E4F28BF7047B0F1C04000F033B951
:103AE00090EA010F0CEAD11348BF42F4807262459C
:103AF00038BF634507D213F47F0F16D080EA010068
:103B000000F00040704710B500F0D7F8097EFC3E89
:103B100000F005B880EA010000F00040704780EA3C
:103B2000010000F0004000F00EB912F47F0F04BF56
:103B30000248704780EA010000F005B90000C07F2C
:103B400041000B0ED3F19E0208D950F400034FEA56
:103B5000032323FA02F048BF4042704710B500F03B
:103B6000ACF800BF49922480002070476FF00042FB
:103B700082EA200070470000C10DD1F19E0206DBF1
:103B80004FEA002343F0004323FA02F0704700425B
:103B900007D54FEA4001B1F1FE4F02D24FF00000CD
:103BA000704710B500F089F84992248000207047D2
:103BB0006FEA2000704700004FF47F0C1CEAD0121F
:103BC0001EBF1CEAD11392EA0C0F93EA0C0F00F00F
:103BD000478090EA010F48BF42F480724FF0004CDA
:103BE0004CEA00204CEA012102EB0302A0FB011386
:103BF000A2F50002002918BF43F001035B0028BFB3
:103C00004FEA330342EB22425FEA132C4CEBC250E3
:103C10002EBFBCEB436FB2F57C0F70474FEA036CCD
:103C2000BCF1004F08BF20F00100B2F57C0F38BF97
:103C300070470BD582F0FF0212F5803FC8BF704776
:103C400000F1C040D8BF00F00040704700F5000C04
:103C50005FEA4C0C48BF7047B0F1C04000F073B849
:103C600090EA010F0CEAD11348BF42F4807262451A
:103C700038BF634504D280EA010000F0004070477D
:103C800010B500F01AF800BF8900013E00F007B837
:103C900000F009B85FEA410C5FEA1C6C08D080EACA
:103CA000010000F050B85FEA400C5FEA1C6CF6D1EE
:103CB0004FF00040A0F5800070470EF1020E2EF08C
:103CC000030E5EF8044B244204D44FEA4102B2F1E1
:103CD0007F4F11D84FEA4003B3F17F4F0CD80ED17C
:103CE0004FEAD07CB2F17F4F0CEB4C0C0CF1020C84
:103CF00008BF4CEBD17C04E04FF0080C01E04FEA28
:103D0000D17C0CEB4C0324FA03F404F00704B4F167
:103D1000040C06D20EEB840CBDE810404CF0010CF4
:103D20006047DFE80CF0070802024FF00040A0F502
:103D3000800010BD0846420018BFD2F1807288BFD3
:103D400000F0004010BDFF2141EAD050C00570478F
:103D50000CF00F03092B08BF082000F059800A2B34
:103D60000BD0082B18BF704708BF1CF0400F0AD0BB
:103D70004FF000004FF0000170471CF0400F18BFDB
:103D80004FF0004070471CF0100F08D020F0704337
:103D900000F07F4242EAD3014FEA4370704700F0DF
:103DA000604021F07F4242EA000201F07F4040EA99
:103DB000727070474FF0FF0C4CF4E06C1CEA11532A
:103DC0001CBF9CEA030C9445C2BFDA4201EB0251CE
:103DD0007047002B0DD0BCF1000F0FD0002A01F06E
:103DE0000041A4BF41F0E04141F07F614FF000008D
:103DF000704701F000414FF00000704750EA013376
:103E00004FF09B0C18BF4CF0806C7FF4ADA870474E
:103E10001CF4801F11D01CF4E02F03D06FEACC31CA
:103E2000490070474FF04050EFF3008222F070429B
:103E300042EA000282F3008870474FF000007047AA
:103E4000000000000000F03F000000000000F83F0C
:103E500000000000000000000000004003B8E23F46
:103E6000000000000000000006D0CF43EBFD4C3EF8
:103E7000033333333333E33FFFAB6FDBB66DDB3FED
:103E80004D268F515555D53F01411DA96074D13F35
:103E900065DBC9934A86CD3FEF4E454A287ECA3F2F
:103EA0003E5555555555C53F93BDBE166CC166BFB1
:103EB0002CDE25AF6A56113FF16BD2C541BDBBBEAA
:103EC000D0A4BE726937663E00000000000000000A
:103ED000F03E000800000020580000006C010008BF
:103EE000483F000858000020A81000008801000882
:103EF00000A24A04000000000000000001020304C8
:103F00000607080900000000000000000000000093
:103F100000000000000000000000000000000000A1
:103F2000010203040102030406070809020406084B
:103F30000000000000000000000000000000000081
:083F4000000000000100000078
:04000005080001D519
:00000001FF
